:100000000C9469000C9491000C9491000C94910054
:100010000C9491000C9491000C9491000C9491001C
:100020000C9491000C9491000C9491000C9491000C
:100030000C9491000C9491000C9491000C949100FC
:100040000C948C190C9491000C94FC190C94D619F6
:100050000C9491000C9491000C9491000C949100DC
:100060000C942E1A0C9491004661696C656420749E
:100070006F20626F6F7420564C35334C305800003F
:100080000000080002010000030407000000000057
:1000900000000000000000250028002B00000000E8
:1000A00000240027002A00040404040404040402B9
:1000B0000202020202030303030303010204081005
:1000C00020408001020408102001020408102000D2
:1000D0004D1B11241FBECFEFD8E0DEBFCDBF12E015
:1000E000A0E0B1E0E0EFF4E402C005900D92AC3680
:1000F000B107D9F725E0ACE6B2E001C01D92AD38FA
:10010000B207E1F710E0C9E6D0E004C02197FE0194
:100110000E946922C836D107C9F70E94961B0C9429
:1001200076220C940000CF93DF9300D000D0CDB79F
:10013000DEB719821A821B821C8289819A81AB8167
:10014000BC818A3F9105A105B10568F40000898151
:100150009A81AB81BC810196A11DB11D89839A83CF
:10016000AB83BC83EACF80E00F900F900F900F908D
:10017000DF91CF9108954F925F926F927F928F920D
:100180009F92AF92BF92CF92DF92EF92FF920F9326
:100190001F93CF93F9010FEF1FEF98010083118395
:1001A000228333834A015B01B3E0B694A79497940A
:1001B0008794BA95D1F76A017B0127E0C222DD243A
:1001C000EE24FF2495018401C0E0063011052105CD
:1001D000310508F041C0C1113FC0DC01A00FB11FC3
:1001E0006C91412C512C320180169106A206B30667
:1001F00049F470E00C2C02C0759567950A94E2F7FB
:1002000026013701462F50E060FF17C0B901A80151
:10021000A3E0440F551F661F771FAA95D1F7440E20
:10022000551E661E771E4082518262827382C1E033
:100230000F5F1F4F2F4F3F4FC8CFBA01759567957E
:100240004FEF441A540A640A740A48E044165104F1
:1002500061047104B9F6ECCFCF911F910F91FF901B
:10026000EF90DF90CF90BF90AF909F908F907F9056
:100270006F905F904F90089590E0FC01E554FF4F20
:10028000249189559F4FFC018491882399F090E037
:10029000880F991FFC01E356FF4FA591B491FC0113
:1002A000ED56FF4F859194918FB7F894EC91E22B26
:1002B000EC938FBF089590E0FC01E158FF4F24912B
:1002C000FC01E554FF4F3491FC01E955FF4FE491E7
:1002D000EE23C9F0222339F0233001F1A8F42130B4
:1002E00019F1223029F1F0E0EE0FFF1FED56FF4F1C
:1002F000A591B4918FB7F894EC91611126C0309517
:100300003E233C938FBF08952730A9F02830C9F0D1
:10031000243049F7809180008F7D03C08091800058
:100320008F7780938000DFCF84B58F7784BDDBCF5C
:1003300084B58F7DFBCF8091B0008F778093B00024
:10034000D2CF8091B0008F7DF9CF3E2BDACF3FB76F
:10035000F8948091320390913303A0913403B091CB
:10036000350326B5A89B05C02F3F19F00196A11DA6
:10037000B11D3FBFBA2FA92F982F8827BC01CD01EF
:10038000620F711D811D911D42E0660F771F881F4E
:10039000991F4A95D1F708958F929F92AF92BF927D
:1003A000CF92DF92EF92FF924B015C010E94A70176
:1003B0006B017C010E94A7016C197D098E099F09C0
:1003C000683E734081059105A8F321E0821A9108E7
:1003D000A108B10888EEC80E83E0D81EE11CF11C0C
:1003E00081149104A104B10429F7FF90EF90DF90EC
:1003F000CF90BF90AF909F908F90089508950895EB
:10040000AF92BF92CF92DF92EF92FF920F931F9322
:10041000CF93DF936C017B018B01040F151FEB0160
:100420005E01AE18BF08C017D10759F06991D60117
:10043000ED91FC910190F081E02DC6010995892B89
:1004400079F7C501DF91CF911F910F91FF90EF9048
:10045000DF90CF90BF90AF900895FC01538D448DF5
:10046000252F30E0842F90E0821B930B541710F05F
:10047000CF96089501970895FC01918D828D98176C
:1004800061F0A28DAE0FBF2FB11D5D968C91928D44
:100490009F5F9F73928F90E008958FEF9FEF089575
:1004A000FC01918D828D981731F0828DE80FF11D3E
:1004B000858D90E008958FEF9FEF0895FC01918D59
:1004C000228D892F90E0805C9F4F821B91098F7352
:1004D0009927089586E393E00E945E0221E0892B2C
:1004E00009F420E0822F089580E090E0892B29F024
:1004F0000E946A0281110C9400000895FC01A48DF1
:10050000A80FB92FB11DA35ABF4F2C91848D90E035
:1005100001968F739927848FA689B7892C93A08918
:10052000B1898C91837080648C93938D848D9813A2
:1005300006C00288F389E02D80818F7D8083089535
:10054000EF92FF920F931F93CF93DF93EC0181E023
:10055000888F9B8D8C8D98131AC0E889F9898081CA
:1005600085FF15C09FB7F894EE89FF896083E889FD
:10057000F98980818370806480839FBF81E090E0EF
:10058000DF91CF911F910F91FF90EF900895F62E7C
:100590000B8D10E00F5F1F4F0F731127E02E8C8D16
:1005A0008E110CC00FB607FCFACFE889F98980815B
:1005B00085FFF5CFCE010E947E02F1CFEB8DEC0FCF
:1005C000FD2FF11DE35AFF4FF0829FB7F8940B8F78
:1005D000EA89FB8980818062CFCFCF93DF93EC01E2
:1005E000888D8823B9F0AA89BB89E889F9898C911B
:1005F00085FD03C0808186FD0DC00FB607FCF7CFD7
:100600008C9185FFF2CF808185FFEDCFCE010E94D6
:100610007E02E9CFDF91CF9108952091AD02260FA0
:100620003327331F21323105ECF42091F802FC010D
:1006300090E080E0243069F082E00895A091AD025E
:100640002191AC0143575D4FA40FB52FB11D2C93E1
:100650000196861798F38091AD02680F6093AD0202
:1006600080E0089581E008951092F80281E080937F
:10067000F7021092F20261E082E10E945B0161E008
:1006800083E10E945B01E9EBF0E080818E7F808353
:1006900080818D7F808388E48093B80085E4809397
:1006A000BC000895CF93DF9391E090938C02882350
:1006B000B9F0C091B800D091BA008091BC008A7B9B
:1006C0008093BC0060E082E10E945B0160E083E116
:1006D0000E945B010E943403D093BA00C093B8001B
:1006E000DF91CF9108950895E0912503809124032F
:1006F000E81730F4F0E0E250FD4F808190E008957B
:100700008FEF9FEF089590912503809124032FEFA1
:100710003FEF981748F4E92FF0E0E250FD4F2081B9
:1007200030E09F5F90932503C901089580912403D1
:1007300090912503891B990B0895CF92DF92EF9238
:10074000FF920F931F93CF93DF937C01CB018A011C
:100750002091D102222389F0EB016B01C40ED51E3A
:10076000CC15DD0569F06991D701ED91FC910190FF
:10077000F081E02DC7010995F3CF642F0E940D038E
:10078000C801DF91CF911F910F91FF90EF90DF9003
:10079000CF900895CF93DF931F92CDB7DEB76983D3
:1007A0002091D1022223F9F020912203203258F027
:1007B00021E030E0FC013383228390E080E00F9061
:1007C000DF91CF91089580912303E82FF0E0E45961
:1007D000FD4F998190838F5F809323038093220341
:1007E00081E090E0ECCF61E0CE0101960E940D0324
:1007F000F7CFCF92DF92EF92FF920F931F93CF9399
:10080000DF93D091220381E0D13208F09CC0C091E7
:10081000D0020E94A7016B017C018091F802811136
:100820006CC082E08093F80281E08093F7028FEF42
:100830008093F6021092F502D093F402ACE6B2E097
:10084000E2EDF2E080E0D8138DC01092F3028091C7
:10085000F302CC0FC82BC093F3028091F2028130D7
:1008600009F084C01092F2020E94A7016B017C0182
:100870008091F3028093BB008091FA029091FB0279
:10088000A091FC02B091FD02892B8A2B8B2BA1F049
:100890000E94A7010091FA021091FB022091FC0234
:1008A0003091FD026C197D098E099F090617170703
:1008B0002807390708F442C08091BC0083FDD8CFD7
:1008C00085EC8093BC000E94A7016B017C018091A4
:1008D000F802823009F44CC08091F6028F3F09F48F
:1008E00069C08091F602803209F466C08091F602F8
:1008F000803309F463C084E026C08091FA029091AD
:10090000FB02A091FC02B091FD02892B8A2B8B2B5C
:1009100009F483CF0E94A7010091FA021091FB0213
:100920002091FC023091FD026C197D098E099F090E
:10093000061717072807390708F06FCF8091F902CB
:100940000E94520385E0109223031092220310921A
:10095000D102DF91CF911F910F91FF90EF90DF9027
:10096000CF9008959D9191938F5F6DCF85EEA9CF24
:100970008091FA029091FB02A091FC02B091FD02DD
:10098000892B8A2B8B2B09F4A2CF0E94A7010091FF
:10099000FA021091FB022091FC023091FD026C19C9
:1009A0007D098E099F09061717072807390708F0E0
:1009B0008ECFC4CF80E0C7CF82E0C5CF83E0C3CF66
:1009C0008F929F92AF92BF92CF92DF92EF92FF925F
:1009D0000F931F93CF93DF936A014801E70191E0E2
:1009E0009093D1028093D00210922303109222039D
:1009F000E881F9810190F081E02DC70109958C0C07
:100A00009D1CC814D90459F0E881F9810190F08146
:100A1000E02DD6016D916D01CE010995F2CFCE0189
:100A20000E94F90390E080E0DF91CF911F910F9138
:100A3000FF90EF90DF90CF90BF90AF909F908F90FE
:100A40000895EF92FF920F931F93CF93DF9300D0FF
:100A5000CDB7DEB7FC01EF5BFE4F70813496E080CE
:100A6000F1804A83598302E010E020E030E0AE01DB
:100A70004F5F5F4F872F0E94E004892B51F08CEE6F
:100A80000F900F90DF91CF911F910F91FF90EF90FA
:100A9000089580E0F5CFEF92FF920F931F93CF93CD
:100AA000DF931F92CDB7DEB7FC01EF5BFE4F708185
:100AB0003496E080F180498301E010E020E030E0EE
:100AC000AE014F5F5F4F872F0E94E004892B49F0F2
:100AD0008CEE0F90DF91CF911F910F91FF90EF90CF
:100AE000089580E0F6CF3F924F925F926F927F928F
:100AF0008F929F92AF92BF92CF92DF92EF92FF922E
:100B00000F931F93CF93DF93CDB7DEB72C970FB61C
:100B1000F894DEBF0FBECDBF4B0130E020E0312C9A
:100B2000AE014F5F5F4F3A01FC01EB5BFE4FFE836E
:100B3000ED83AC014F5B5E4F58874F83B297FA87C6
:100B4000E987405251095C874B872C015BED451AC0
:100B50005EEF550A5C01E8EDAE1AEEEFBE0AF40155
:100B6000E20FF31F0081002309F47CC031107AC02A
:100B700069014FEFC41AD40AD401AC0DBD1D6C91AC
:100B80000F3F09F047C0690152E0C50ED11CD401E6
:100B9000AC0DBD1D8C916130C1F040F0623011F19F
:100BA000633061F1ECEF3E2E9601D9CF690194E0FC
:100BB000C90ED11C238190E0982F8827820F911DA8
:100BC000EB85FC8591838083EFCF690144E0C40EFF
:100BD000D11C238190E0982F8827820F911DE985F1
:100BE000FA85F0CF690144E0C40ED11C238190E066
:100BF000982F8827820F911DF201E4CF690144E00C
:100C0000C40ED11C238190E0982F8827820F911D5C
:100C1000F501D8CF053030F62E5F3F4FD401A20F3B
:100C2000B31FF301C02ED12CCF01861997098C1563
:100C30009D051CF48D918193F7CFC20ED31EED81DB
:100C4000FE81E080F18010E030E020E0A301EF8140
:100C5000F88580810E94E004892B09F4A5CF7CEE01
:100C6000372EA2CF832D2C960FB6F894DEBF0FBE81
:100C7000CDBFDF91CF911F910F91FF90EF90DF904B
:100C8000CF90BF90AF909F908F907F906F905F902C
:100C90004F903F900895EF92FF920F931F93AB01F7
:100CA000FC01EB5BFE4FE080F1808F5B9E4F06E026
:100CB00010E020E030E060EBFC0180810E94E00465
:100CC000892B31F08CEE1F910F91FF90EF900895DA
:100CD00080E0F9CF90E080E008954F925F926F92AC
:100CE0007F928F929F92AF92BF92CF92DF92EF92BC
:100CF000FF920F931F93CF93DF93D82F6A01480180
:100D000081E08093D102D093D002109223031092FD
:100D10002203D701ED91FC910190F081E02DC701F4
:100D20000995C7010E94F9030E94A7012B013C010C
:100D30008091F802811166C0C82D81E08093F8028D
:100D40008093F7029FEF9093F6021092F502980DB0
:100D50009093F4028093F3028091F302DD0FD82B7D
:100D6000D093F3028091F202813009F086C0109294
:100D7000F2020E94A7012B013C018091F3028093B3
:100D8000BB008091FA029091FB02A091FC02B0910D
:100D9000FD02892B8A2B8B2BA1F00E94A7010091C9
:100DA000FA021091FB022091FC023091FD026419BD
:100DB000750986099709061717072807390708F4E0
:100DC00042C08091BC0083FDD8CF85EC8093BC00ED
:100DD0000E94A7012B013C018091F802813009F4A7
:100DE0004EC08091F5028C1710F4C091F502E2ED2F
:100DF000F2E0AEEFB2E080E08C1751F191919D935B
:100E00008F5FFACF8091FA029091FB02A091FC02D1
:100E1000B091FD02892B8A2B8B2B09F489CF0E947C
:100E2000A7010091FA021091FB022091FC0230917F
:100E3000FD0264197509860997090617170728071F
:100E4000390708F075CF8091F9020E945203C0E083
:100E500010922503C09324038C0C9D1CC814D90444
:100E600081F1D701ED91FC910284F385E02DC7015A
:100E70000995F60181936F01F1CF85EEA7CF80919F
:100E8000FA029091FB02A091FC02B091FD02892B25
:100E90008A2B8B2B09F4A0CF0E94A7010091FA02A4
:100EA0001091FB022091FC023091FD02641975093A
:100EB00086099709061717072807390708F08CCF06
:100EC000C2CF90E080E0DF91CF911F910F91FF9012
:100ED000EF90DF90CF90BF90AF909F908F907F90DA
:100EE0006F905F904F9008952F923F924F925F9234
:100EF0006F927F928F929F92AF92BF92CF92DF922A
:100F0000EF92FF920F931F93CF93DF93CDB7DEB78E
:100F10002F970FB6F894DEBF0FBECDBF9C878B878F
:100F20006D875F874E873901170128012F82388628
:100F300049865A8610E000E0EE24E394F12C0A156D
:100F40001B0509F461C09E01295F3F4FB201A10159
:100F50008E859F850E94BB004F81588569857A8563
:100F60004F3F2FEF52076207720709F49CC0DB0165
:100F7000CA018C549F4FAF4FBF4FE6E0B695A7957F
:100F800097958795EA95D1F7880F991F880F991F34
:100F90008D509E4F21E0FC0180819181A281B3811F
:100FA000892B8A2B8B2B09F420E0FD85F2137BC063
:100FB0001A012B0133E056944794379427943A95BD
:100FC000D1F7DB01CA0187709927AA27BB2726E042
:100FD000221631044104510468F4F301E20DF31DBB
:100FE000970102C0220F331F8A95E2F7C901908151
:100FF000892B80831A012B013FEF231A330A430AFE
:10100000530A0F5F1F4F9BCFB12CF4012082318216
:1010100042825382B1102DC0B3018B859C850E9402
:101020004B06B82E811125C0EB85FC85EB5BFE4F8E
:10103000E080F180EB85FC85EF5BFE4F06E010E081
:1010400020E030E0AE014F5F5F4F60EB80810E9497
:101050006D06892B11F09CEEB92EF301DE0111967D
:10106000C301069631912D91321320C0E817F9077C
:10107000C9F78B2D2F960FB6F894DEBF0FBECDBFEC
:10108000DF91CF911F910F91FF90EF90DF90CF9064
:10109000BF90AF909F908F907F906F905F904F9098
:1010A0003F902F9008952EECB22EAFCF8EECB82E3D
:1010B000E0CFCF92DF92EF92FF920F931F93CF93E7
:1010C000DF9300D000D0CDB7DEB76A01FC01EB5B47
:1010D000FE4FE080F1808F5B9E4F04E010E020E047
:1010E00030E0AE014F5F5F4FFC0180810E946D06D2
:1010F00049815A8154274527542770E060E0762FB4
:10110000652F542F44272B81422B762F652F542F88
:1011100044272C81422BF6014083518362837383E1
:10112000892B71F480E00F900F900F900F90DF915A
:10113000CF911F910F91FF90EF90DF90CF90089586
:101140008CEEF1CFCF92DF92EF92FF920F931F932D
:10115000CF93DF9300D0CDB7DEB76A01FC01EB5B24
:10116000FE4FE080F1808F5B9E4F02E010E020E0B8
:1011700030E0AE014F5F5F4FFC0180810E946D0641
:1011800029813A81322723273227F60131832083B0
:10119000892B61F480E00F900F90DF91CF911F9128
:1011A0000F91FF90EF90DF90CF9008958CEEF3CFEA
:1011B0000F931F93CF93DF9300D0CDB7DEB7FC0121
:1011C000E253FF4F208121502330B8F48C01AE014F
:1011D0004F5F5F4F6EE00E94A208811107C0AE0111
:1011E0004F5F5F4F6CE0C8010E94A2080F900F9004
:1011F000DF91CF911F910F91089580E0F7CFEF928B
:10120000FF920F931F93CF93DF9300D0CDB7DEB73C
:101210008C017A016330710509F449C090F46130A2
:10122000710509F162307105E1F1F80181A992A916
:10123000A3A9B4A9F70180839183A283B38380E03B
:1012400049C06630710588F7AE014F5F5F4F64E6B5
:101250000E94A20881113EC0298180E0922F990F3F
:10126000B0E0A0E0E7CFAE014F5F5F4F64E40E94C3
:10127000A20881112FC0998120E0392F330FA901D5
:1012800070E060E0232BD1F0F7014083518362834B
:101290007383F80145AB56AB67AB70AF91E096A393
:1012A00019C0FC0181AD92ADA3ADB4ADC3CFFC01BB
:1012B000FD9680819181A281B381BCCFF80145A9BF
:1012C00056A967A970ADF701408351836283738388
:1012D000F80116A20F900F90DF91CF911F910F91FF
:1012E000FF90EF9008958F929F92AF92BF92CF920E
:1012F000DF92EF92FF920F931F93CF93DF9300D073
:10130000CDB7DEB7962ED42E822EFC01EF5BFE4FBA
:10131000C0805C012BEBA21A2EEFB20AF501E0802F
:10132000F18001E010E020E030E0AE014E5F5F4F61
:101330008C2D0E946D06892BA9F42A812D21282944
:101340002A83F501E080F180298301E010E020E0AC
:1013500030E0AE014F5F5F4F692D8C2D0E94E0049D
:10136000892B81F08CEE0F900F90DF91CF911F9120
:101370000F91FF90EF90DF90CF90BF90AF909F9034
:101380008F90089580E0EFCFEF92FF920F931F931D
:10139000FC01EB5BFE4FE080F1808F5B9E4F01E034
:1013A00010E020E030E0FC0180810E946D06892B76
:1013B00031F08CEE1F910F91FF90EF90089580E037
:1013C000F9CF9F92AF92BF92CF92DF92EF92FF92AE
:1013D0000F931F93CF93DF931F92CDB7DEB77C019E
:1013E0005B016A01922E198241E06FEF0E944B056A
:1013F000182F40E060E0C7010E944B05182B40E029
:101400006FEFC7010E944B05182B992031F0A50101
:101410006BECC7010E94C409182B002341F0AE01F8
:101420004F5F5F4F6EEEC7010E94C409182B41E069
:101430006FEFC7010E944B05182B41E060E0C70128
:101440000E944B05182B40E06FEFC7010E944B052F
:1014500099819F7EF6019083812B0F90DF91CF9130
:101460001F910F91FF90EF90DF90CF90BF90AF90C2
:101470009F900895EF92FF920F931F93CF93DF9366
:101480001F92CDB7DEB77C0100E041E06BE0C70101
:101490000E944B05182F40E06BE0C7010E944B05EE
:1014A000182BAE014F5F5F4F63E1C7010E94C40973
:1014B000812B0F5F9981977061F0033061F0882371
:1014C00021F30F90DF91CF911F910F91FF90EF903B
:1014D00008950330B1F784EFF4CF0F931F93CF93A8
:1014E000DF931F92CDB7DEB78A01AE014F5F5F4F2A
:1014F000613081F060E50E94C409811105C09981C5
:101500009F5F990FF80190830F90DF91CF911F910A
:101510000F91089560E7EFCFCF92DF92EF92FF92A5
:101520001F93CF93DF931F92CDB7DEB77C0140E0CE
:1015300063E80E944B05182F811117C0D12CC12CD4
:10154000AE014F5F5F4F63E8C7010E94C409182FC7
:10155000898181110AC0111108C08FEFC81AD80AF9
:1015600088ECC816D10461F719EF41E063E8C701C0
:101570000E944B05812B0F90DF91CF911F91FF901F
:10158000EF90DF90CF9008950F931F93CF93DF9349
:101590001F92CDB7DEB78B01FC01E253FF4F2081D4
:1015A000AE014F5F5F4F2430A1F463E10E94C40994
:1015B0009981292F2770987109F08AEF243089F4D6
:1015C00091E0F80190830F90DF91CF911F910F91DF
:1015D000089564E10E94C4098111F5CF998190FDBD
:1015E000EFCFF8011082EFCFEF92FF920F931F938E
:1015F000CF93DF931F92CDB7DEB77C01198210E045
:1016000000E0BE016F5F7F4FC7010E94C40A8111D5
:101610000CC09981913049F00F5F1F4F083C1105B4
:1016200019F00E949300EDCF89EF0F90DF91CF91D9
:101630001F910F91FF90EF900895CF93DF93EC01EE
:10164000462F416060E00E944B05811111C0CE0120
:101650000E94F40A81110CC0CE010E943A0A811145
:1016600007C040E060E0CE01DF91CF910C944B05C4
:10167000DF91CF910895CF92DF92EF92FF920F9377
:101680001F93CF93DF931F92CDB7DEB78C01FC0180
:10169000F08841E060E80E944B0541E06FEFC8012F
:1016A0000E944B0540E060E0C8010E944B05F80134
:1016B000E95DFE4F408161E9C8010E944B0541E0B0
:1016C00060E0C8010E944B0540E06FEFC8010E9436
:1016D0004B0540E060E8C8010E944B05F1E0FF16B1
:1016E000F1F1FF1630F093E0F91609F44AC088EFE3
:1016F0000CC041E060E0C8010E944B0591E0998375
:10170000C12CD12C7601882389F00F90DF91CF91E5
:101710001F910F91FF90EF90DF90CF900895AE0151
:101720004F5F5F4F60E0C8010E94C409EFEFCE1A1F
:10173000DE0AEE0AFE0A998190FF0AC0811108C0F4
:10174000F8ECCF16D104E104F10449F789EFDDCFBD
:1017500098ECC916D104E104F104B9F6F7CF811170
:1017600003C0C8010E94D80842E060E0C8010E949E
:101770004B058111CACFF801E15EFE4F94E09083E2
:10178000C4CF811103C0C8010E94D80844E0EDCF46
:101790002F923F924F925F926F927F928F929F9281
:1017A000AF92BF92CF92DF92EF92FF920F931F936F
:1017B000CF93DF93CDB7DEB7EC970FB6F894DEBFCB
:1017C0000FBECDBF6C015B01DC0150961C920E94E4
:1017D0003B0B81111CC0C6010E94F40A811117C085
:1017E00083E0F601E15EFE4F8083B696E080F180F3
:1017F0000CE010E020E030E0AE01465E5F4F64E1B7
:10180000349780810E946D06892BD1F08CEEEC9686
:101810000FB6F894DEBF0FBECDBFDF91CF911F9101
:101820000F91FF90EF90DF90CF90BF90AF909F907F
:101830008F907F906F905F904F903F902F90089582
:10184000F501168AD50110821182128213826CA1D1
:1018500070E0762F66272DA1620F711D148215820C
:1018600016821782E9A1F0E0FE2FEE27FF0F2F016D
:10187000712C612C1C964D925D926D927C921F97FB
:101880008BA190E0982F8827990F8C0130E020E001
:1018900050960D931D932D933C9353970C8D10E010
:1018A000102F00272D8D7801E20EF11CFCAEEBAE5F
:1018B0005596FC92EE9254979A8CD601A75CBE4F37
:1018C0002D913C9111975B978C90283E03E0300757
:1018D000E9F1629FC001639F900D729F900D1124EA
:1018E0008C509E4F68EE73E00E944622D6015D96B2
:1018F000ED90FD900D911C9190975A962C9122237A
:1019000029F12BAD3CAD2E9DA0012F9D500D3E9D8C
:10191000500D1124452F5527E417F50741F460EECB
:101920007AE8882009F4E3C068EB72E212C09F01F4
:10193000DB010E94272283017F01E41AF50A0109D5
:101940001109A80197010E940522B901882009F414
:10195000CEC0CB019695879596958795D50119961A
:101960009C938E9318976295660F660F607C5796CE
:101970006C931FA61EA6892D90E07C0173E0F59460
:10198000E7947A95E1F7FAAEE9AE09AD0F70902EC3
:1019900009F4B2C089AD8D7011E018AB853029F023
:1019A00084EF800F843008F018AA41E06FEFC60181
:1019B0000E944B05811107C0AE01425D5F4F66EB8F
:1019C000C6010E94A2089EA520E0392F330F79019D
:1019D00010E000E0E9AAFAAA0BAB1CAB811105C02C
:1019E00040E06FEFC6010E944B05F601EE5CFE4F32
:1019F000E9A8FAA80BA91CA9E082F182028313834B
:101A0000811178C1D60195968C909597882009F41C
:101A10007FC0F501E484F584068517855A968C917C
:101A200020E030E0A901882399F0A489B589F60166
:101A3000258D368D478D50A10E94FA219B01AC0166
:101A400020583F4F4F4F5F4F232F342F452F55279F
:101A50002E0D3F1D401F511FA8EEB3E00E94FA213A
:101A600070588F4F9F4FBC0188279927F601E65D7C
:101A7000FE4F672B682B692B09F041C08EEA97E86F
:101A8000AFE8B2E080839183A283B3831EEAE12EA4
:101A900017E8F12E0FE812E0EDAAFEAA0FAB18AF7F
:101AA000D5011B961C921E921A97AE01465D5F4FA0
:101AB00070E060E0C6010E94FF084AA55BA56CA526
:101AC0007DA5411551056105710559F0FF24F39479
:101AD0000DA91EA92FA938AD40175107620773073A
:101AE00008F0F12C8823A9F0312C212C07C1F50135
:101AF00071876087178A3DCF01E008AB56CF10820F
:101B00001182128213821DAA1EAA1FAA18AEC8CF64
:101B1000F12CD60197963C90332009F4C5C0AE0154
:101B20004A5D5F4F62E070E0C6010E94FF084EA16F
:101B30005FA168A579A5411551056105710559F0A9
:101B4000EE24E39409A91AA92BA93CA9401751072F
:101B50006207730708F0E12C212C90E0811132C05C
:101B6000D60198962C90222009F4A4C00BAD1CAD90
:101B70000115110509F49AC0962D852D742D66273F
:101B8000980150E040E00E94052229013A01AE018F
:101B90004F5F5F4F63E070E0C6010E94FF0849811C
:101BA0005A816B817C81411551056105710531F0C8
:101BB00091E0441655066606770608F090E0882303
:101BC00009F479C0D5011B961C921E921A9780E0E9
:101BD000811002C0FF24F394F60136A1F3A6F4E0CD
:101BE0009F1609F4A8C021E0311120E0D6019C968F
:101BF0002C93311002C0EE24E394F601E5A62110E7
:101C000001C091E0D6019E969C93F501808F9601CC
:101C1000265B3F4F99E1F901DE01119601900D928B
:101C20009A95E1F7D5011896ED91FC911997579681
:101C30009C9157971A966D917C911B971C96ED90ED
:101C4000FD900D911C911F9750964D905D906D9059
:101C50007C90539754964D915C91559714968D9026
:101C60009D90AD90BC9017978D829E82AF82B88672
:101C7000FA87E9877C876B87ED86FE860F87188B4E
:101C8000498A5A8A6B8A7C8A5E8B4D8B988F898FA2
:101C900089E1FE013196D90101900D928A95E1F713
:101CA000C6010E943A0AB3CDE12C5ACF412C512CE7
:101CB00032016DCF90E018A98FEF113009F488CF71
:101CC000890D8330F0F026E09216F9F039E0931692
:101CD000E1F089AD8D708830B1F041E0E41699F003
:101CE00054E09516F9F09130C1F0F416C1F09F2D33
:101CF000EF2C68CF312C812C212CF12C90E0E12CA1
:101D000061CF85E065CF83E063CF84E0811064CF4D
:101D1000F60136A121E023A766CF82E0F7CFE92EB6
:101D200081E0F4CF82E0811057CF81E0D6019B960D
:101D30008C93E12C82E021E059CFAF92BF92DF92E9
:101D4000EF92FF920F931F93CF93DF93CDB7DEB740
:101D500069970FB6F894DEBF0FBECDBF8C015B0153
:101D60007C0183EEE81A8EEFF80AF701D08040EC90
:101D700061E0C8010E944B05811126C0BE016F5F62
:101D80007F4FC8010E94C80B81111EC041E06FEF58
:101D9000C8010E944B05811117C0A50166EBC8015F
:101DA0000E94A208811110C040E06FEFC8010E949C
:101DB0004B05811109C04D2D61E0C8010E944B0502
:101DC000811102C0F701D08269960FB6F894DEBF88
:101DD0000FBECDBFDF91CF911F910F91FF90EF907C
:101DE000DF90BF90AF9008950F931F93CF93DF9331
:101DF0001F92CDB7DEB78B011982AE014F5F5F4FE7
:101E000061E00E94C409811116C0998194FB3327B7
:101E100030F9F801308393FB332730F9328392FB9A
:101E2000332730F9318396FB222720F92383991F2A
:101E30009927991F94830F90DF91CF911F910F9154
:101E400008952F923F924F925F926F927F928F925E
:101E50009F92AF92BF92CF92DF92EF92FF921F9329
:101E6000CF93DF93CDB7DEB72B970FB6F894DEBFD5
:101E70000FBECDBF6C011A011B861F821E8262300D
:101E800009F06EC0AE01465F5F4F60E00E946D0AD0
:101E9000182F811108C0AE01455F5F4F66E4C6018F
:101EA0000E94C409182FAA85B0E020E03FE24AE36F
:101EB00050E00E94FA212B013C0124EF420E21E068
:101EC000521E611C711CCB84D12CF12CE12C8FEFA4
:101ED000C81AD80AE80AF80A98EE892E93E0992ED3
:101EE000A12CB12CC301B201A50194010E940522CD
:101EF000CA01B901A70196010E9436226B017C013B
:101F0000C301B20120ED37E040E050E00E9405221D
:101F1000C701B601620F731F841F951FA5019401AD
:101F20000E940522F1012083318342835383812F54
:101F30002B960FB6F894DEBF0FBECDBFDF91CF91C9
:101F40001F91FF90EF90DF90CF90BF90AF909F9048
:101F50008F907F906F905F904F903F902F9008955B
:101F6000633009F043C0AE01465F5F4F60E00E94FE
:101F70006D0A182F20E030E0A9018111D3CFAE0106
:101F8000465F5F4F60E0C6010E946D0A182F811105
:101F900008C0AE014A5F5F4F61E5C6010E94A2081A
:101FA000182FEE81FF81AA85B0E020E03FE24AE3EE
:101FB00050E00E94FA212B013C0124EF420E21E067
:101FC000521E611C711C6F01DD24F12CE12C04C038
:101FD000CC0CDD1CEE1CFF1CFA95D2F78FEFC81A53
:101FE000D80AE80AF80AEE24FF2476CFBE016F5F14
:101FF0007F4F0E94F40E8C81882351F1AE01465F21
:102000005F4F60E0C6010E946D0A182FF12CE12C91
:1020100081111BC0AE014A5F5F4F61E5C6010E949E
:10202000A208182F2E813F81C9019927B0E0A0E0B6
:1020300004C0880F991FAA1FBB1F3A95D2F70196BB
:10204000A11DB11D7C01112329F0D12CC12C25C06B
:10205000F12CE12CAE01465F5F4F61E0C6010E94AA
:102060006D0A182F8111F1CFAE01485F5F4F61E714
:10207000C6010E94A208182F28853985C901992711
:10208000B0E0A0E004C0880F991FAA1FBB1F3A95BB
:10209000D2F70196A11DB11D6C01AA85B0E020E028
:1020A0003FE24AE350E00E94FA212B013C01E4EFB9
:1020B0004E0EE1E05E1E611C711C88EE882E83E0EE
:1020C000982EA12CB12CC301B201A50194010E944C
:1020D0000522D601AE19BF090E94FA210FCF4F92F7
:1020E0005F926F927F92BF92CF92DF92EF92FF92B8
:1020F0000F931F93CF93DF9300D000D0CDB7DEB7FF
:102100008A01AE014F5F5F4F0E94210FB82E8111EF
:102110002AC069817A818B819C8128EE422E23E03E
:10212000522E612C712CA30192010E94052269019B
:102130007A019B01AC01AFEFBFEF0E94FA216C5016
:102140007E4F8F4F9F4FA30192010E94052276017F
:10215000DD24CC24C20ED31EE41EF51EF801C0827D
:10216000D182E282F3828B2D0F900F900F900F900F
:10217000DF91CF911F910F91FF90EF90DF90CF9063
:10218000BF907F906F905F904F9008955F926F9295
:102190007F928F929F92AF92BF92CF92DF92EF92F7
:1021A000FF920F931F93CF93DF93CDB7DEB7619765
:1021B0000FB6F894DEBF0FBECDBF7C018B01FC01D2
:1021C0008089FB018083AE014A5F5F4F68EFC701E2
:1021D0000E94A208582E81113AC1AE014F5F5F4F95
:1021E00064E0C7010E945908582E811130C12E8128
:1021F0003F812115310569F050E040E069817A8125
:102200008B819C810E940522F801268337834087B9
:102210005187F80186819781A085B185F701868B6A
:10222000978BA08FB18FF8011286AE014F5F5F4F81
:1022300060E2C7010E94A208582E811108C189815D
:102240009A81009709F01AC1F701858D968DA78DA7
:10225000B0A1F80185879687A787B08BF701128E0A
:10226000AE014F5F5F4F68E2C7010E94A208582E7F
:102270008111EDC089819A819F708115F8E09F07D7
:1022800008F090514AEF489F9001499F300D11246A
:10229000C901330FAA0BBB0BF801818B928BA38B67
:1022A000B48B5801F1E2AF0EB11C470125E2820E5A
:1022B000911C380185E1680E711CD12CC12CA5013F
:1022C000B601C7010E94FF08582E8111C0C0F40159
:1022D00081914F01F30181933F01FFEFCF1ADF0A94
:1022E00024E0A20EB11C86E0C816D10441F7AE016D
:1022F0004F5F5F4F61E0C7010E94C409582E8111F2
:10230000A6C08981F701E35EFE4F808387FFCAC0C4
:1023100081E0F80181AFF80181ADF701E75BFF4F84
:10232000808380ED97E0A0E0B0E08A879B87AC8750
:10233000BD871E821F821886198686E39BE0A0E077
:10234000B0E0F80182839383A483B583BE016F5FFD
:102350007F4FC7010E94F40E582E811178C08981E9
:10236000811107C08A81811104C08B81882309F4FF
:102370003EC0AE01465F5F4F62E0C7010E94210F81
:102380008111C1C089818823A9F08A859B85AC858C
:10239000BD85825B9D4FAF4FBF4FF8014281538196
:1023A00064817581840F951FA61FB71F8283938355
:1023B000A483B5838B81882309F477C08A859B85A4
:1023C000AC85BD858E549D4FAF4FBF4F880F991F71
:1023D000AA1FBB1FF8014281538164817581840F5C
:1023E000951FA61FB71F82839383A483B5838C8117
:1023F000811168C08D81882301F1AE01425F5F4F7A
:1024000064E0C7010E94210F8E849F84A888B98848
:10241000F6E28F0EF2E09F1EA11CB11CF801428172
:10242000538164817581480D591D6A1D7B1D42834E
:10243000538364837583811166C0F801828193811F
:10244000A481B581F701828B938BA48BB58B852DED
:1024500061960FB6F894DEBF0FBECDBFDF91CF916E
:102460001F910F91FF90EF90DF90CF90BF90AF90B2
:102470009F908F907F906F905F90089533E0880FCA
:10248000991F3A95E1F7B0E0A0E0F80185879687BB
:10249000A787B08BF701858F968FA78FB0A381E0B8
:1024A000828FDECEF80111AE36CF8A81882309F4FF
:1024B0009ECF8A859B85AC85BD858C569D4FAF4F41
:1024C000BF4F88CFAE014A5F5F4F63E0C7010E94F4
:1024D000210F8E809F80A884B984F4E98F0EF2E0EA
:1024E0009F1EA11CB11CF80142815381648175813A
:1024F000480D591D6A1D7B1D428353836483758378
:10250000882309F477CF582EA2CF2F923F924F9273
:102510005F926F927F928F929F92AF92BF92CF9273
:10252000DF92EF92FF920F931F93CF93DF93CDB77C
:10253000DEB769970FB6F894DEBF0FBECDBF00EDD2
:1025400017E020E030E00B871C872D873E871F8631
:10255000188A198A1A8A40322EE4520761057105D9
:10256000E0F45CEFB52E8B2D69960FB6F894DEBFC4
:102570000FBECDBFDF91CF911F910F91FF90EF90D4
:10258000DF90CF90BF90AF909F908F907F906F9093
:102590005F904F903F902F9008954E8B5F8B688F88
:1025A000798F8C01BE016A5F7F4F0E94F40EB82EB6
:1025B0008111D9CFCE88DF88E88CF98C88EEC81AD3
:1025C00088E0D80AE108F1088E81811106C08F8168
:1025D000811103C088858823C1F1AE01455F5F4F3B
:1025E00062E0C8010E94210F81110AC18E818823F7
:1025F00091F08B859C85AD85BE85825B9D4FAF4FED
:10260000BF4F8C159D05AE05BF0508F0AACFC81AAF
:10261000D90AEA0AFB0A8885882309F471C08B85E8
:102620009C85AD85BE858E549D4FAF4FBF4F880FA3
:10263000991FAA1FBB1F8C159D05AE05BF0508F08D
:1026400090CFC81AD90AEA0AFB0A89858823D9F0EB
:10265000AE01415F5F4F63E0C8010E94210F4F85CB
:10266000588969897A894C565D4F6F4F7F4F4C1559
:102670005D056E057F0508F074CF8111C1C0C41AD5
:10268000D50AE60AF70A8A85882309F46CCFBE01C9
:102690006F5F7F4FC8010E94F40E8C818823E9F19F
:1026A000AE014B5E5F4F60E0C8010E946D0AB82E1C
:1026B00081111CC0AE014D5E5F4F61E5C8010E94F3
:1026C000A208B82E8B899C891C013324512C412CE3
:1026D00004C0220C331C441C551C9A95D2F79FEF62
:1026E000291A390A490A590ABB20C9F08E899F89DB
:1026F000A88DB98DF801828B938BA48BB58B33CFCA
:102700008F81882309F4A1CF8B859C85AD85BE85FB
:102710008C569D4FAF4FBF4F8ECF312C212CAE0129
:102720004B5E5F4F61E0C8010E946D0AB82E8111B7
:10273000DDCFA6E2CA1AA2E0DA0AE108F108AD8903
:10274000B0E020E03FE24AE350E00E94FA214B0172
:102750005C01B4EF8B0EB1E09B1EA11CB11CA8EE76
:10276000B3E0A70196010E94FA212B013C01C501AB
:10277000B40120ED37E040E050E00E940522420E17
:10278000531E641E751EC501B40128EE33E040E0FF
:1027900050E00E940522C301B2010E940522220ED0
:1027A000331E21143104E1F04101B12CA12CE1E0F0
:1027B0008E1A9108A108B10890E080E0B501A4014B
:1027C0004427452B462B472B31F0B694A79497947A
:1027D00087940196F3CF982F88271C01280C391C69
:1027E000A10161E7C8010E942105B82E81117ECFA9
:1027F000F801E153FF4FC082D182E282F38276CFAB
:10280000B82EB1CE7F928F929F92AF92BF92CF920D
:10281000DF92EF92FF920F931F93CF93DF931F925C
:10282000CDB7DEB77C015B016A01722E4C0183EEED
:10283000881A8EEF980AF4011081198241E061E054
:10284000C7010E944B0581114AC060E4C7010E9484
:102850001D0B811144C0F1E07F121AC000E021E09D
:10286000AE014F5F5F4FB501C7010E94E1098823A8
:1028700089F00F90DF91CF911F910F91FF90EF9012
:10288000DF90CF90BF90AF909F908F907F900895F2
:10289000F501108242E061E0C7010E944B05811101
:1028A00024C060E0C7010E941D0B81111EC0F1E031
:1028B0007F1218C001E020E0A601BE016F5F7F4FCC
:1028C000C7010E94E1098111D4CF412F61E0C70106
:1028D0000E944B058111CDCFF4011083CACFF501C1
:1028E0001082C7CFF6011082F0CFF601F9CF2F92F8
:1028F0003F924F925F926F927F928F929F92AF9290
:10290000BF92CF92DF92EF92FF920F931F93CF93DC
:10291000DF93CDB7DEB7AC970FB6F894DEBF0FBE2E
:10292000CDBF1C017FA36EA359A748A71F8218869D
:1029300019861A861B861C861D861E86198A1A8A87
:10294000FC01E85DFE4F20813181398F288FAC0179
:102950004F5E5E4F5B8F4A8FDA011C922C01BEEEF8
:102960004B1ABEEF5B0AF20110823C01FDEE6F1ABA
:10297000FEEF7F0AD3011C92FC01EC5EFE4F108239
:10298000319610823196108241E06FEF0E944B0524
:102990008B8B81111DC140E06FE4C1010E944B058A
:1029A0008B8B811115C14CE26EE4C1010E944B0575
:1029B0008B8B81110DC140E06FEFC1010E944B056F
:1029C0008B8B811105C144EB66EBC1010E944B0565
:1029D0008B8B8111FDC040E060E8C1010E944B0576
:1029E0008B8B8111F5C020E0AE014E5E5F4FBE01C2
:1029F0006F5E7F4FC1010E9402148B8B8111E8C072
:102A00001F82188619861A86F101E95EFE4FFD8F36
:102A1000EC8F9E01295F3F4F4901A3E0AA2EB12C04
:102A2000C12CD12CE12CF12C87012A8D3B8DAF01DB
:102A300060E0C1010E9474078B8B8111C9C04F8176
:102A4000588569857A854C8B5D8B6E8B7F8BBE013B
:102A5000615F7F4FC1010E949D0E8B8B8111B8C0B9
:102A60008F859889688D798D6817790708F0D3C0AC
:102A7000AA8DBB8D1C92F2011082D3011C9232965A
:102A8000108231961082319610828C899D89AE8990
:102A9000BF898C549F4FAF4FBF4FE6E0B695A795C7
:102AA00097958795EA95D1F7880F991F880F991FF9
:102AB0008D509E4FFC0180819181A281B381892B31
:102AC0008A2B8B2B91F42C893D894E895F892C327E
:102AD00031054105510548F42F5F3F4F4F4F5F4F80
:102AE0002C8B3D8B4E8B5F8BD0CFAE01495F5F4F00
:102AF0004A0173E0A72EB12CC12CD12CEC88FD88A3
:102B00000E891F892A8D3B8D4C8D5D8D61E0C10141
:102B10000E947407811159C16F81788589859A85D2
:102B20006C8B7D8B8E8B9F8BBE01615F7F4FC10154
:102B30000E949D0E811149C18F859889A88DB98DFC
:102B400011E063E0462E512C612C712CA817B907B7
:102B500020F010E0412C512C3201C12CD12C7601F7
:102B6000C39460C0D501C4010196A11DB11D8C8B19
:102B70009D8BAE8BBF8B86E0EAA5FBA5ACA5B02FE5
:102B800001900D928A95E1F74E8C5F8C68A079A038
:102B90004AA35BA36CA37DA36FC04E8C5F8C68A01F
:102BA00079A0AEA1BFA14D925D926D927C921397D8
:102BB000E8A5F9A51083F101EC5FFE4F81E0808369
:102BC00032978C918083A8A5B9A58C91319680838A
:102BD0008B89AC960FB6F894DEBF0FBECDBFDF91E8
:102BE000CF911F910F91FF90EF90DF90CF90BF900A
:102BF000AF909F908F907F906F905F904F903F909D
:102C00002F900895BEECBB8BE3CFEEECEB8BE0CFC7
:102C1000FEECFB8BDDCF10E0412C512C3201C12C9E
:102C2000D12C76018F859889288D398D821793074D
:102C300008F0B7CF46E0EA8DFB8D9E012F5F3F4F36
:102C4000D90101900D924A95E1F7E88DF98D8E1B1F
:102C50009F0BAC0170E060E04AA35BA36CA37DA373
:102C600053E0452E512C612C712CB1016F5E7E4FCB
:102C70007BA76AA72CA7032F9E01255F3F4F4C8996
:102C80005D896E897F898C8D9D8D0E94BB008B84B0
:102C90009C84AD84BE847FEF87169706A706B7068F
:102CA00009F4B0CFD301C2010196A11DB11D8E8FD1
:102CB0009F8FA8A3B9A3D501C4018C549F4FAF4FD8
:102CC000BF4F36E0B695A795979587953A95D1F77A
:102CD000880F991F880F991F8D509E4F11E0FC019E
:102CE00080819181A281B381892B8A2B8B2B09F45E
:102CF00010E0812F90E0B0E0A0E08C159D05AE05BE
:102D0000BF0509F082CFD501C40123E0B695A79590
:102D1000979587952A95D1F7B501A4014770552756
:102D20006627772786309105A105B10508F070CF99
:102D3000EA8DFB8DE80FF91F21E030E001C0220F82
:102D40004A95EAF78081822B80836A8D7B8DC10151
:102D50000E944B06811139C0BE01615F7F4FC101E6
:102D60000E949D0E811131C08F859889288D398DE3
:102D7000AC01421B530B8217930711F450E040E063
:102D800070E060E0A88DB98DA817B90708F0EACE09
:102D90008AA19BA1ACA1BDA184179507A607B7077F
:102DA00008F0FBCEBE016F5F7F4FC1010E944B0652
:102DB00096E0FE013196D101AF5EBE4F01900D92BB
:102DC0009A95E1F7882309F4ECCE8B8B01CF42E092
:102DD00050E067E272E086E393E00C9400029F9279
:102DE000AF92BF92CF92DF92EF92FF920F931F9319
:102DF000CF93DF93CDB7DEB7A0970FB6F894DEBFC1
:102E00000FBECDBF6C012FEDC20ED11CF601A0800C
:102E1000F7E0F12CAF1609F4EEC0B62E8C0141E0BC
:102E200060E80E944B05F82E41E06FEFC8010E9458
:102E30004B05F82A40E060E0C8010E944B05F82AE3
:102E400046E06FEFC8010E944B05F82AAE01425ED2
:102E50005F4F63E8C8010E94C409F82A4E8D4460A0
:102E600063E8C8010E944B05F82A47E06FEFC801EC
:102E70000E944B05F82A41E061E8C8010E944B0519
:102E8000F82A0E949300F82A41E060E8C8010E94F5
:102E90004B05F82A21E0B212C1C0A0FC02C24BE6E9
:102EA00064E9C8010E944B05E82EC8010E948C0A03
:102EB0008E29F82AAE01465E5F4F60E9C8010E9484
:102EC0005908F82A8A8D9B8DAC8DBD8D992EE8947A
:102ED00097F897FBEE24E0F844E264E9C8010E9409
:102EE0004B05F82AC8010E948C0AF82AAE01465EFA
:102EF0005F4F60E9C8010E945908F82A8A8D9B8DAE
:102F00002C8D3D8D3C8B2D8B9E8B8F8B45E264E908
:102F1000C8010E944B05F82AC8010E948C0AF82AB1
:102F2000AE01465E5F4F60E9C8010E945908F82A69
:102F30008C8D9D8D988F898F40E061E8C8010E943B
:102F40004B05F82A46E06FEFC8010E944B05F82AAE
:102F5000AE01425E5F4F63E8C8010E94C409F82ACF
:102F60004E8D4B7F63E8C8010E944B05F82A41E073
:102F70006FEFC8010E944B05F82A41E060E0C801EC
:102F80000E944B05F82A40E06FEFC8010E944B05F4
:102F9000F82A40E060E8C8010E944B05F82A59F57C
:102FA000F1E0BF1699F0A1FC23C0F801E052FF4FF9
:102FB0008F8D8083319688A18083BE016F5F7F4FA4
:102FC000C8018E519F4F0E946F2212C0A0FC10C0FA
:102FD000F801EE5FFE4F90823196E082DE0154965A
:102FE0007496035E1E4F8D9181930E171F07D9F7BC
:102FF000BA28F601B0828F2DA0960FB6F894DEBFE6
:103000000FBECDBFDF91CF911F910F91FF90EF9039
:10301000DF90CF90BF90AF909F900895A1FC41C1E9
:1030200042E064E9C8010E944B05E82EC8010E94F5
:103030008C0A8E29F82AAE01415E5F4F60E9C80113
:103040000E94C409F82A4BE764E9C8010E944B05B5
:10305000F82AC8010E948C0AF82AAE01405E5F4F30
:1030600060E9C8010E94C409F82A47E764E9C80179
:103070000E944B05F82AC8010E948C0AF82AAE016A
:10308000465E5F4F60E9C8010E945908F82A4A8DE0
:103090005B8D6C8D7D8DDB01CA0129E1B695A7950D
:1030A000979587952A95D1F78983DB01CA0132E18B
:1030B000B695A795979587953A95D1F78F778A8397
:1030C000DB01CA01EBE0B695A79597958795EA9540
:1030D000D1F78F778B83DB01CA01F4E0B695A79512
:1030E00097958795FA95D1F78F778C83440F440F86
:1030F000440F48774E8F48E764E9C8010E944B05AA
:10310000F82AC8010E948C0AF82AAE01465E5F4F79
:1031100060E9C8010E945908F82A8A8D9B8DAC8D00
:10312000BD8DAC01BD012DE176956795579547950D
:103130002A95D1F72E8D240F2D83AC01BD0136E1E8
:1031400076956795579547953A95D1F74F774E8382
:10315000AC01BD01EFE07695679557954795EA95E7
:10316000D1F74F774F83292F2F772887AC01BD01E7
:1031700076956795579547954F774987982F9295FC
:10318000990F990F90749E8F49E764E9C8010E94D6
:103190004B05F82AC8010E948C0AF82AAE01465E47
:1031A0005F4F60E9C8010E945908F82A8A8D9B8DFB
:1031B000AC8DBD8DAC01BD012AE176956795579523
:1031C00047952A95D1F72E8D240F2A87AC01BD0192
:1031D00033E176956795579547953A95D1F74F77AF
:1031E0004B87AC01BD01ECE0769567955795479507
:1031F000EA95D1F74F774C87AC01BD01F5E07695A4
:10320000679557954795FA95D1F74F774D87982F42
:10321000990F990F9C779E8F4AE764E9C8010E9435
:103220004B05F82AC8010E948C0AF82AAE01465EB6
:103230005F4F60E9C8010E945908F82A8A8D9B8D6A
:10324000AC8DBD8DAC01BD012EE17695679557958E
:1032500047952A95D1F72E8D240F2E87AC01BD01FD
:1032600037E176956795579547953A95D1F74F771A
:103270004F872A2F2F77288BAC01BD01E9E0769587
:10328000679557954795EA95D1F74F77498BF2E0C7
:10329000B695A79597958795FA95D1F78F778A8BED
:1032A0001B8AE12C912C48CE85ED8093BC00809147
:1032B000FA029091FB02A091FC02B091FD020796E8
:1032C000A11DB11D23E0B695A795979587952A95E1
:1032D000D1F72091BC0024FD03C01092F80208959C
:1032E0004091FA025091FB026091FC027091FD0244
:1032F000452B462B472B69F30097A105B10541F0FB
:1033000025E32A95F1F700000197A109B109E1CF62
:103310008091F9020C9452031F920F920FB60F92F4
:1033200011242F933F938F939F93AF93BF938091DB
:103330002E0390912F03A0913003B091310330916F
:103340002D0323E0230F2D3758F50196A11DB11D44
:1033500020932D0380932E0390932F03A09330038B
:10336000B09331038091320390913303A0913403E1
:10337000B09135030196A11DB11D80933203909346
:103380003303A0933403B0933503BF91AF919F9162
:103390008F913F912F910F900FBE0F901F90189516
:1033A00026E8230F0296A11DB11DD2CF1F920F92C6
:1033B0000FB60F9211242F933F934F935F936F9308
:1033C0007F938F939F93AF93BF93EF93FF9386E386
:1033D00093E00E947E02FF91EF91BF91AF919F9188
:1033E0008F917F916F915F914F913F912F910F90AE
:1033F0000FBE0F901F9018951F920F920FB60F924D
:1034000011242F938F939F93EF93FF93E0914603A3
:10341000F09147038081E0914C03F0914D0382FDD0
:103420001BC0908180914F038F5F8F732091500359
:10343000821741F0E0914F03F0E0EA5CFC4F958F7A
:1034400080934F03FF91EF919F918F912F910F9058
:103450000FBE0F901F9018958081F4CF1F920F928E
:103460000FB60F9211242F933F934F935F936F9357
:103470007F938F939F93AF93BF93EF93FF9380912D
:10348000B900887F803609F44AC0F0F5883209F423
:10349000A7C018F5803109F49BC0B8F4882309F45B
:1034A000F9C0883009F494C0FF91EF91BF91AF91BA
:1034B0009F918F917F916F915F914F913F912F914C
:1034C0000F900FBE0F901F901895883109F488C097
:1034D000803251F78093F60214C0803409F49DC005
:1034E00040F48033B9F38833F9F68093F60285EC23
:1034F000B0C0803509F485C0883509F496C0883499
:1035000099F60E945419D0CF883909F48CC038F547
:10351000883729F050F4883611F0803729F683E097
:103520008093F8021092CF0257C0883809F47BC00C
:10353000803919F0803809F0B7CF8091CF028032FE
:1035400008F071C0E091CF0281E08E0F8093CF022E
:103550008091BB00F0E0E155FD4F80833DC0803B92
:1035600039F0E0F4803A09F479C0883A09F09CCF48
:1035700084E08093F8021092AE021092AD02E091C6
:103580002003F091210309958091AD0281110FC0B4
:1035900081E08093AD0210928D0209C0803C09F455
:1035A000A6CF883C09F4A3CF883B09F07DCFE091FA
:1035B000AE0281E08E0F8093AE02F0E0E357FD4F44
:1035C00080818093BB009091AE028091AD0229C0B2
:1035D0008091F3028093BB0085EC8093BC0064CFA4
:1035E0009091F5028091F402981758F5E091F50258
:1035F00081E08E0F8093F502F0E0EE52FD4F808166
:10360000E9CFE091F50281E08E0F8093F502809181
:10361000BB00F0E0EE52FD4F80839091F502809167
:10362000F4029817C8F285E8D8CFE091F50281E05E
:103630008E0F8093F5028091BB00F0E0EE52FD4FBB
:1036400080838091F70281115CCF81E08093F20248
:1036500084EA8093BC001092F80226CF85EC809318
:10366000BC001092F8028091CF02803230F4E091D9
:10367000CF02F0E0E155FD4F10826091CF0270E083
:10368000E0911E03F0911F038FEA92E009951092DA
:10369000CF020ACF1092F60234CFE6E3F3E01382B2
:1036A000128288EE93E0A0E0B0E084839583A68345
:1036B000B78327E032E03183208325EC30E0358783
:1036C000248724EC30E03787268720EC30E0318BEC
:1036D000208B21EC30E0338B228B22EC30E0358BD9
:1036E000248B26EC30E0378B268B118E128E138EB6
:1036F000148EE3EDF3E01382128284839583A68314
:10370000B78389E192E0918380838EEA91E0EFEDC7
:10371000F3E0DF019C011D9221503040E1F780EE83
:1037200093E090932805809327050895CF93DF9326
:10373000CDB7DEB7C754D1090FB6F894DEBF0FBEC0
:10374000CDBF789484B5826084BD84B5816084BD2A
:1037500085B5826085BD85B5816085BD80916E002F
:10376000816080936E001092810080918100826060
:10377000809381008091810081608093810080919D
:1037800080008160809380008091B100846080938C
:10379000B1008091B00081608093B00080917A0088
:1037A000846080937A0080917A00826080937A00AE
:1037B00080917A00816080937A0080917A0080689D
:1037C00080937A001092C100E0914603F091470384
:1037D00082E08083E0914203F09143031082E09104
:1037E0004403F091450380E1808310924E03E09101
:1037F0004A03F0914B0386E08083E0914803F09107
:103800004903808180618083E0914803F0914903FE
:10381000808188608083E0914803F0914903808132
:1038200080688083E0914803F091490380818F7D17
:10383000808382E00E943C0185E00E943C01E0918F
:103840002705F0912805EF5BFE4F89E28083E09128
:103850002705F0912805EE5BFE4F81E08083E09123
:103860002705F0912805ED5BFE4F80E991E09183FB
:103870008083E0912705F0912805EB5BFE4F83EDF7
:1038800093E0918380831092250310922403109279
:103890002303109222030E9434038EEF91E0909351
:1038A0002103809320038FEF91E090931F03809377
:1038B0001E0321E04EEF69E880EE93E00E94730959
:1038C000811106C040E068E880EE93E00E944B055D
:1038D000AE01455C5F4F60EC80EE93E00E94C4094E
:1038E0001092BF0488EE93E090931A058093190517
:1038F00080E991E090931C0580931B0585E89BE689
:10390000A1E0B0E080931D0590931E05A0931F05D4
:10391000B093200584EA90E7A9E0B0E08093A80482
:103920009093A904A093AA04B093AB041092FD0352
:103930001092FE031092FF0310920004BE016F5F0D
:103940007F4F80EE93E00E94C610082F81110BC0BC
:1039500019821A828AE3FE013196A0EFB3E001904A
:103960000D928A95E1F784E690E0909302058093AA
:10397000010584E893E0909304058093030584EFA8
:1039800091E0909306058093050580E09AE090937E
:1039900009058093080581E08093180541E060E8FF
:1039A00080EE93E00E944B05182F41E06FEF80EE10
:1039B00093E00E944B05182B102B40E060E080EE56
:1039C00093E00E944B05182BAE01415C5F4F61E90B
:1039D00080EE93E00E94C409182B8FAD80930705F9
:1039E00041E060E080EE93E00E944B05182B40E040
:1039F0006FEF80EE93E00E944B05182B40E060E8EB
:103A000080EE93E00E944B05912F982BFFEDCF2E77
:103A1000F3E0DF2E10E000E0FF24F394911179C170
:103A20000330110509F49DC06CF401301105C9F093
:103A30000230110509F492C0F0920504F601F6A2D5
:103A400080E025C00430110509F48EC020E04FEE5F
:103A50000530110589F760E680EE93E00E94730956
:103A600014C0409115045091160460911704709190
:103A70001804E9E07695679557954795EA95D1F74B
:103A800064E480EE93E00E9421058823B9F20F5F81
:103A90001F4FFFEFCF1ADF0A982F0630110509F0EC
:103AA000BDCF81116EC0109207041092080422E06D
:103AB0004EEF60E680EE93E00E947309811161C0D1
:103AC0001092090420E14FEE60E680EE93E00E9440
:103AD0007309811156C010920A0480E090E0A2E1BF
:103AE000B0E08093110490931204A0931304B09358
:103AF00014048091060481113AC080E090E4A0E0B3
:103B0000B0E08093150490931604A0931704B0932B
:103B1000180480E090E0A3E2B0E080931904909351
:103B20001A04A0931B04B0931C0410921D0410925D
:103B30001E0410921F04109220048FEF8093FD0446
:103B40004FEF61E080EE93E00E944B0591E090938F
:103B5000FF04811116C01092E40413C0F092070410
:103B60006DCFF09208046ACF20E04EEF74CF40E2B0
:103B700050E064E480EE93E00E942105882309F47C
:103B8000BCCF8093DF0349E26AE8809127059091DA
:103B900028050E944B058093DF036AE070E080E017
:103BA00090E00E94CC018091DF038111B4C0E091CC
:103BB0002705F0912805EF5BFE4F89E2808362E0E4
:103BC00080EE93E00E94EF16882309F4B5C080933D
:103BD000DF0381110BC080918A05813021F480912F
:103BE0008B05813019F08BEF8093DF038091DF0329
:103BF0008111FFC0609027057090280525961FAEA3
:103C00001EAE259728961FAE289727961FAE27979A
:103C100023961CAE1DAE1EAE1FAE239761E0C301FE
:103C20000E94EF16F301EE5FFE4F4080A42CB12CF2
:103C3000D12CC12C3196508081E0851508F4CBC081
:103C40005812C2C091E2A916B104C104D10408F00F
:103C5000C2C041E06FEFC3010E944B0581111AC041
:103C600040E06FE4C3010E944B05811113C04CE298
:103C70006EE4C3010E944B0581110CC040E06FEF60
:103C8000C3010E944B05811105C044EB66EBC301E3
:103C90000E944B0593012F5E3E4FF9011082319631
:103CA00010823196108231961082319610823196B0
:103CB0001082E12CF12C8701552009F491C1D80123
:103CC000C7018C549F4FAF4FBF4F46E0B695A795A5
:103CD000979587954A95D1F7880F991F880F991F57
:103CE0008D509E4FFC0180819181A281B381892BEF
:103CF0008A2B8B2B09F074C1FCE2EF16F10401054D
:103D0000110509F46DC18FEFE81AF80A0F4F1F4F24
:103D1000D6CF892F36CF08E610E0F80164916623EC
:103D200041F086E393E00E94A0020F5F1F4F892BB2
:103D3000A1F70E94E716FFCF8091C00481112CC02B
:103D400069E272E089E695E00E946F226AE272E021
:103D500089E295E00E946F2263E672E089E495E0D3
:103D60000E946F2249E855E060EC80EE93E00E94EB
:103D7000C40981112CCFAE014F5F5F4F62EC80EE22
:103D800093E00E94C40991E090938A0599819295ED
:103D90009F7090938B051BCF1091C10462EC74E06F
:103DA00089E695E00E946F22112381F2133238F4E4
:103DB00066E372E0103261F662E472E0C9CF6EE44D
:103DC00072E0173228F6F8CFEDE0AE16B104C10468
:103DD000D10408F43ECFAE014A5B5F4FBE01615C87
:103DE0007F4FC3010E947714882309F40EC180938A
:103DF000DF038091DF0381110EC0AE014D5B5F4F89
:103E0000BE016F5F7F4F80912705909128050E942A
:103E100077148093DF038091DF0381110FC021E0CD
:103E2000AE01455C5F4FBE01615C7F4F809127050D
:103E3000909128050E9402148093DF038091DF0394
:103E4000811169CFE0912705F0912805108AE09152
:103E50002705F0912805FF24F394F5A2009127058A
:103E600010912805F80145A956A967A970ADE9E0A8
:103E70007695679557954795EA95D1F764E4C8011B
:103E80000E942105811102C0F801F6A28093DF0390
:103E9000811141CFE0912705F091280581E080A7AD
:103EA000E0912705F0912805FD9684ED98E0A0E0CB
:103EB000B0E080839183A283B3838091DF0381117B
:103EC0002ACFE0912705F091280583E0808BC090F0
:103ED0002705D0902805AE01455C5F4F68EFC6010D
:103EE0000E94A208882309F4A7C18093DF039AE007
:103EF000892E912CA12CB12C24E6C22ED12CE12CA0
:103F0000F12C30E0232E30E0332E1982BE016F5F9A
:103F10007F4F80912705909128050E94C40A8093C5
:103F2000DF03811103C089818130C9F5BE016F5F54
:103F30007F4F80912705909128050E94C80B8093A0
:103F4000DF03998D90938C0529853A85882311F09C
:103F50002FEF3FEF50E040E019A28E010F5D1F4FA1
:103F6000CA01B901A50194010E940522605DF80112
:103F700062938F01211531054105510589F730976D
:103F800061F001900020E9F73197AF01401B510B20
:103F9000B80186E393E00E9400020E94E7160091B8
:103FA0002B0310912C0386E393E00E945E02181607
:103FB00019060CF081C186E393E00E943C029091C7
:103FC0002A03E92FF0E0EA5DFC4F8A3009F46CC166
:103FD000953008F069C19F5F90932A038083E3CFF7
:103FE000FE0131964F01A301495E5E4F652DC3016D
:103FF0000E9474078111F8CE81E0F301EC5FFE4F5F
:1040000080833297408231965082F301E85CFE4F04
:10401000808160E071E0811103C03297608171811D
:10402000C3010E9473058111E2CE44E06AE0C3013E
:104030000E944B058111DBCE20E04FEE64E8C30106
:104040000E9473098111D3CE84E0F301E253FF4F44
:104050008083C3010E943A0A8111C9CE41E06FEF0B
:10406000C3010E944B05182FAE014D5B5F4F64E802
:10407000C3010E94A208182B40E06FEFC3010E9409
:104080004B05812B09F0B3CEF301E853FF4F259682
:104090008EAD9FAD2597A4E0880F991FAA95E1F7F3
:1040A000B0E0A0E080839183A283B383BE016F5F01
:1040B0007F4FC3010E94C610811199CEAE01495BAA
:1040C0005F4F69E0C3010E94C409811190CE289618
:1040D0008FAD2897817028968FAF2897F301E25E05
:1040E000FE4F80838AE3FE013196D3015096019002
:1040F0000D928A95E1F7AE01495B5F4F61E0C30124
:104100000E94C409811173CE8301035E1E4F28965D
:104110008FAD2897F80180831BAEAE01455C5F4FE1
:1041200061E0C3010E94C4099BAD811160CEF92EEC
:10413000E894F4F894FF11C04F2D61E0C3010E9490
:104140004B05811154CEF801F082F3014289538965
:1041500064897589C3010E9485121BAEAE01455C5E
:104160005F4F61E0C3010E94C4099BAD81113FCE46
:10417000F92EE894F2F892FF11C04F2D61E0C301CF
:104180000E944B05811133CEF801F082F301428980
:10419000538964897589C3010E94851283E0F30104
:1041A000E15EFE4F8083AE014B5B5F4F60E0C30179
:1041B0000E946D0A81111BCE26968FAD2697F301C2
:1041C000E852FF4F8083AE014B5B5F4F61E0C3015C
:1041D0000E946D0A81110BCE26968FAD2697F301B2
:1041E000ED52FF4F8083AE01455C5F4F63E0C3013A
:1041F0000E946F108111FBCD8BAD9CADADADBEADFE
:10420000F301EC52FF4F80839183A283B383AE010D
:10421000455C5F4F64E0C3010E946F108111E7CDE0
:10422000F301E153FF4F4BAD5CAD6DAD7EAD40830F
:10423000518362837383DBCD2BAD3CAD62E370E0D1
:1042400080E02115310521F0A2E3B0E00E94272291
:10425000F601EF5BFE4F90813496E080F1806C8335
:104260007B838A83198204E010E020E030E0AE0115
:104270004F5F5F4F64E0892F0E94E004892B11F0AB
:104280008CEE33CE82E390E0A0E0B0E0F601868BC6
:10429000978BA08FB18F1092DF03809127059091AB
:1042A00028050E943B0B21CE108210922A0386E241
:1042B00093E00E94B5218C0110932C0300932B03F3
:1042C00061E0101611060CF060E085E00E945B01D1
:1042D0000536110514F004E610E00C39FFEF1F0756
:1042E00014F40CE91FEF980117FF03C031952195D5
:1042F0003109AAE4BCEF0E945A22A70196010E944C
:10430000DB2129013A0188EE480E83E0581E611C2A
:10431000711C98EE491693E05906A9F061E082E01D
:104320000E945B01440C551C440C551CE5E04E1AE0
:104330005108C2010197F1F760E082E00E945B0141
:10434000C2010197F1F764E670E080E090E00E941E
:10435000CC012114310409F4D8CD0E946A028823CB
:1043600009F4D3CD0E940000D0CDFC018827992705
:10437000E89421912032E9F3293010F02E30C8F36F
:104380002B3241F02D3239F4689404C00E94D321BD
:10439000820F911D219120532A30C0F31EF4909575
:1043A00081959F4F08957AE0979F902D879F802D4C
:1043B000910D11240895052E97FB1EF400940E9480
:1043C000F22157FD07D00E94052207FC03D04EF4CE
:1043D0000C94F22150954095309521953F4F4F4FC9
:1043E0005F4F089590958095709561957F4F8F4FA1
:1043F0009F4F08950E942722A59F900DB49F900D76
:10440000A49F800D911D11240895A1E21A2EAA1BCC
:10441000BB1BFD010DC0AA1FBB1FEE1FFF1FA21774
:10442000B307E407F50720F0A21BB30BE40BF50B71
:10443000661F771F881F991F1A9469F760957095FA
:10444000809590959B01AC01BD01CF010895A29F7D
:10445000B001B39FC001A39F700D811D1124911D58
:10446000B29F700D811D1124911D0895DB018F9362
:104470009F930E94FA21BF91AF91A29F800D911D41
:10448000A39F900DB29F900D11240895AA1BBB1BF2
:1044900051E107C0AA1FBB1FA617B70710F0A61B44
:1044A000B70B881F991F5A95A9F780959095BC0165
:1044B000CD0108950E942722332312F48A1B9B0BFF
:1044C0000C9464220E942722B7FF0895821B930B4D
:1044D0000895EE0FFF1F0590F491E02D0994FB0164
:1044E000DC0101900D920020E1F70895F894FFCFD0
:1044F00001FF0101000001FF00010900011000019E
:1045000011000124010125FF01750001FF01014E89
:104510002C01480001302001FF0001300901540046
:10452000013104013203014083014625016000018D
:10453000270001500601510001529601560801570B
:10454000300161000162000164000165000166A0A4
:1045500001FF010122320147140149FF014A000114
:10456000FF00017A0A017B0001782101FF0101238C
:10457000340142000144FF01452601460501404047
:10458000010E0601201A01434001FF00013403011E
:10459000354401FF01013104014B09014C05014D76
:1045A0000401FF000144000145200147080148289B
:1045B0000167000170040171010172FE01760001C2
:1045C000770001FF01010D0101FF000180010101E0
:1045D000F801FF01018E0101000101FF00018000CF
:1045E0000000000A000000050000000000000005B7
:1045F00000000000000000A00200022D02ED025E9B
:10460000023C02500200000000CA039D036A0673C8
:10461000039603830374030D0A00564C35334C3064
:10462000582054533000564C35334C305820545396
:104630003100564C35334C30582054533200564CD0
:1046400035334C305820455331206F72206C6174E3
:0C465000657200564C35334C30580000A9
:00000001FF
